:204000000A120912081219422001B240805A20013F40BA423F90C04216243F40C4423F900C
:20402000CC4211243A40CC423A80C4420A110A113840C4423C487F4C0F5F1F4FBA423D4895
:204040008F121A83F72379C239D0085A824920013F4000003F90000008243A400000023C44
:204060003F4A8F123A900000FB23304090420A1209127A4C213C1C530E930D243F90000181
:204080000A2C29434F4F8F107B4C0FDB1983FA23023C2F9202287B4C013C0B4A1F833F93E1
:2040A0000B244B4B1D53CD4BFFFF1F833F93FA23033C1D53CD4FFFFF7F4C0F9AFA237F4CFF
:2040C0000F93E7237F4C8F106B4C0F5BD42330409242B240805A2001D2431E0032D2B01288
:2040E0005E41B0123E423C407642B012A442B240AAAA401182434211D2431D003F400300A0
:204100001F830F9303381F830F93FD3782934811F523B24003004811F13F0F120E120D1244
:204120000C120B125F422B000F114F4F5E422B00C2432B004E4F0E5E8E93101104244F4FAE
:204140000F5F9F121011C2934A110324B1C0D0000A003B413C413D413E413F410013F24042
:2041600060005900E2425A00F2D25900B24004026001B24010D16401D2D31F00D2D31E00D3
:20418000B2400602800182438201B240D000920130410F120E120D120C120B125F42230037
:2041A0000F114F4F4E4F0E5E8E93001104244F4F0F5F9F1200113B413C413D413E413F419A
:2041C00000130F120E120D120C120B121C4270013C9006000428824370019212441192C3E0
:2041E00064013B413C413D413E413F4100130F120E120D120C120B1292124611B2438001C5
:20420000B2431E013B413C413D413E413F41001331400039B012AA420C930224B0120040E2
:204220000C43B012D240B012AE421F4C01000F9305241D53CD43FFFF1F83FB233041F2D001
:2042400028005900B2D020006001B2D01000800130410F4C0C4D3D4003000D5F1E4F010048
:20426000304064420F4C0E9305241F53FF4DFFFF1E83FB23304192E34E111F424E110F5F15
:204280000F5F824F820130413441354136413741384139413A41304132D01000FD3F1E4383
:1242A00030406E40824C461130411C4330410343FF3F04
:1A42B20002000400000000002A429E42524200004B00B2424C11C04200115D
:02FFE000984245
:02FFE2001A41C2
:02FFE400984241
:02FFE60098423F
:02FFE800924144
:02FFEA00C24112
:02FFEC00984239
:02FFEE00984237
:02FFF000984235
:02FFF200984233
:02FFF400984231
:02FFF60098422F
:02FFF80098422D
:02FFFA00EE41D6
:02FFFC00984229
:02FFFE001042AF
:00000001FF
